:020000040000FA
:2000000012C0FECFFDCFFCCFFBCFFACFF9CFF8CFF7CFF6CFF5CFF4CFF3CFF2CFF1CFF0CF74
:20002000EFCFEECFEDCFF894EE27ECBBF1E0FBBFEBBFE5BFF8E1F1BDE1BD8DE0A2E0BB2772
:20004000ED938A95E9F780E094E0A0E6ED930197E9F7EFE5EDBFE4E0EEBFC0E6D1E000C0C7
:20006000E0E0E5BBE0E3E4BBE3E0E9B9E8E1EAB9E6E8E0BDE1E4ECB907D0AD9AAC9804D0E2
:20008000AD98AC9AF7CFFFCFE4EFF1E0FA93EA9300C0E991F991309639F083E397E001976B
:0A00A000F1F7A8953197C9F708950C
:2018000012C0FECFFDCFFCCFFBCFFACFF9CFF8CFF7CFF6CFF5CFF4CFF3CFF2CFF1CFF0CF5C
:20182000EFCFEECFEDCFF894EE27ECBBF1E0FBBFF2E0FBBFE5BFF8E1F1BDE1BD8DE0A2E05A
:20184000BB27ED938A95E9F780E094E0A0E6ED930197E9F7EFE5EDBFE4E0EEBFC0E6D1E08D
:2018600004C0EE27FF2709940895E0E3E4BBE5BBE8EBFBE0FA93EA9306D0E0E0E5BBE4BBA0
:1E188000F0DFFFCFFFCFE991F991309639F083E397E00197F1F7A8953197C9F708952D
:00000001FF
